:0400000087EF0CF08A
:1010000000003EEC0CF01F0E416E47C03CF048C0A3
:101010003DF0000E3F6E0A0E3E6EE1EC0BF03C50D0
:10102000426EBEEC0AF0340E356E010E366E90EC58
:1010300009F00D0E446EFC0EE82EFED7442EFCD7B0
:10104000340E356E000E366E90EC09F01F0E416EB8
:10105000000E386E0A0E376E47C035F048C036F0C5
:10106000FBEC0AF035C03CF036C03DF0000E3F6EA0
:101070000A0E3E6EE1EC0BF03C50426EBEEC0AF004
:10108000330E356E010E366E90EC09F00D0E446E87
:10109000FC0EE82EFED7442EFCD7330E356E000E24
:1010A000366E90EC09F01F0E416E000E386E640E25
:1010B000376E47C035F048C036F0FBEC0AF035C05B
:1010C0003CF036C03DF0000E3F6E0A0E3E6EE1EC85
:1010D0000BF03C50426EBEEC0AF0320E356E010E43
:1010E000366E90EC09F00D0E446EFC0EE82EFED725
:1010F000442EFCD7320E356E000E366E90EC09F0A1
:101100001F0E416E030E386EE80E376E47C035F085
:1011100048C036F0FBEC0AF035C03CF036C03DF07C
:10112000000E3F6E0A0E3E6EE1EC0BF03C50426E3C
:10113000BEEC0AF0310E356E010E366E90EC09F001
:101140000D0E446EFC0EE82EFED7442EFCD7310E59
:10115000356E000E366E90EC09F0270E3B6E2E0EAB
:101160003C6E18EC0AF02E50D8A4B9EF08F0BBEF93
:1011700008F0BFEF08F0000E486E000E476E2A0E12
:101180003B6E2F0E3C6E18EC0AF02F50D8A4CBEF1C
:1011900008F0CDEF08F0D9EF08F04950D8A4D3EF0C
:1011A00008F0D5EF08F0D9EF08F0010E496E474A74
:1011B000482A2F04D8A4DFEF08F0E1EF08F0EBEFA6
:1011C00008F04904D8A4E7EF08F0E9EF08F0EBEFE6
:1011D00008F0000E496E240E3B6E2D0E3C6E18EC8E
:1011E0000AF02D50D8A4F7EF08F0F9EF08F0FFEF60
:1011F00008F0300E3D6E35EC0BF003EF08F0300ECA
:101200003D6E6FEC0BF003EF08F000EF00F0010E05
:101210003B6E3550D8B40FEF09F011EF09F021EF14
:1012200009F03550D96EDA6ADF30E832E832070B60
:10123000366E070E36641FEF09F021EF09F078EFE4
:1012400009F0000E3B6E8EEF09F03550D96EDA6A68
:10125000DF30E832E832070B366E010E376E362A81
:1012600034EF09F0D8903736362E32EF09F0375088
:10127000FF0A386E3550D96EDA6ADF50070B020D5F
:10128000F350150FD96EDA6ADECF39F0DDCF3AF0C0
:1012900039C0D9FF3AC0DAFF3850DF168EEF09F0B7
:1012A0003550D96EDA6ADF30E832E832070B366E35
:1012B000010E376E362A5FEF09F0D8903736362E9A
:1012C0005DEF09F03550D96EDA6ADF50070B020D79
:1012D000F350150FD96EDA6ADECF38F0DDCF39F072
:1012E00038C0D9FF39C0DAFF3750DF128EEF09F06E
:1012F0003550D96EDA6ADFBC80EF09F083EF09F070
:10130000010E84EF09F0000E000AD8B425EF09F0B1
:10131000010AD8B450EF09F021EF09F03B50120058
:10132000010E3C6E3550D8B498EF09F09AEF09F0F1
:10133000AAEF09F03550D96EDA6ADF30E832E832C8
:10134000070B376E070E3764A8EF09F0AAEF09F014
:1013500001EF0AF0000E3C6E16EF0AF03550D96E20
:10136000DA6ADF30E832E832070B376E010E386E8A
:10137000372ABDEF09F0D8903836372EBBEF09F089
:101380003850FF0A396E3550D96EDA6ADF50070BD4
:10139000020DF3500B0FD96EDA6ADECF3AF0DDCFD3
:1013A0003BF03AC0D9FF3BC0DAFF3950DF1616EFE9
:1013B0000AF03550D96EDA6ADF30E832E832070BCE
:1013C000376E010E386E372AE8EF09F0D8903836BC
:1013D000372EE6EF09F03550D96EDA6ADF50070B89
:1013E000020DF3500B0FD96EDA6ADECF39F0DDCF84
:1013F0003AF039C0D9FF3AC0DAFF3850DF1216EFA1
:101400000AF03650376E386A3850000AD8B40BEFFD
:101410000AF0AAEF09F03750000AD8B4AEEF09F08D
:10142000010AD8B4D9EF09F0AAEF09F03C50120034
:10143000000E3F6E3B50D8B420EF0AF022EF0AF0C6
:101440002AEF0AF03C50D8A428EF0AF02AEF0AF05D
:101450002EEF0AF0000E3E6E6FEF0AF03BC035F043
:101460003F0E366E71EC0AF03B50D96EDA6A020E0E
:10147000D926DF50D8A43FEF0AF041EF0AF056EF2B
:101480000AF03F04D8A447EF0AF049EF0AF04FEF03
:101490000AF03C50D96EDA6ADF6A6DEF0AF03C5010
:1014A000D96EDA6A010EDF6E6DEF0AF03B50D96E2D
:1014B000DA6A020ED926DE04D8A461EF0AF063EFDF
:1014C0000AF06DEF0AF03F04D8A469EF0AF06BEF61
:1014D0000AF049EF0AF04FEF0AF0010E3E6E3E505F
:1014E00012003550D8B477EF0AF079EF0AF091EF97
:1014F0000AF03650D8B47FEF0AF081EF0AF091EF8E
:101500000AF03550D96EDA6ADF30E832E832070B7C
:10151000376E070E37648FEF0AF091EF0AF093EF02
:101520000AF0BDEF0AF03650D96EDA6A3550E16E36
:10153000E26AE730E832E832070B376E3550E16E89
:10154000E26AE750070B020DF350010FE16EE26A09
:10155000E6CF38F0E5CF39F038C0E1FF39C0E2FF1F
:10156000E7503A6E372AB7EF0AF0D8903A32372E62
:10157000B5EF0AF03A50010BDF6E12004150D8A4CB
:10158000C4EF0AF0C6EF0AF0D2EF0AF0090E426487
:10159000CCEF0AF0CEEF0AF0D2EF0AF0000E436E65
:1015A000F9EF0AF041C035F04250010B366E90EC75
:1015B00009F0436E4128356ED8904230010B366EEB
:1015C00090EC09F0436E4150020F356E4240E84204
:1015D0003F0B010B366E90EC09F0436E4150030F48
:1015E000356E4238E8461F0B010B366E90EC09F061
:1015F000436E43501200000E3A6E000E396E3750A3
:101600003810D8B406EF0BF008EF0BF030EF0BF00A
:10161000010E3B6E10EF0BF0D890373638363B2A70
:1016200038AE15EF0BF017EF0BF00CEF0BF0D89076
:1016300039363A363750355C38503658D8A023EF13
:101640000BF025EF0BF02AEF0BF03750355E3850DA
:10165000365A3980D890383237323B2E17EF0BF09C
:1016600039C035F03AC036F01200010E3F6E3D50E1
:10167000D8A43DEF0BF03FEF0BF043EF0BF0000E63
:101680003F6E6DEF0BF04DC040F03D50D96EDA6A01
:10169000DF500F0B3E6E40503E18F80B3E18406E68
:1016A0003D50D96EDA6ADF38070B3E6E3E463E4645
:1016B0003E4640503E18C70B3E18406E409C3D5081
:1016C000D96EDA6ADFAE02D0408E01D0409E400E65
:1016D000356E010E366E90EC09F03F501200010E8F
:1016E0003F6E3D50D8A477EF0BF079EF0BF07DEF14
:1016F0000BF0000E3F6EA7EF0BF04CC040F03D50DA
:10170000D96EDA6ADF500F0B3E6E40503E18F80B70
:101710003E18406E3D50D96EDA6ADF38070B3E6ED8
:101720003E463E463E4640503E18C70B3E18406E71
:10173000409C3D50D96EDA6ADFAE02D0408E01D0B7
:10174000409E400E356E000E366E90EC09F03F5014
:101750001200010E416E3F50D8A4B1EF0BF0B3EF71
:101760000BF0B7EF0BF0000E416EDFEF0BF04EC049
:1017700042F03F50D96EDA6ADF500F0B406E425094
:101780004018F80B4018426E3F50D96EDA6ADF38C5
:10179000070B406E40464046404642504018C70B3B
:1017A0004018426E429C3F50D96EDA6ADFAE02D0DA
:1017B000428E01D0429E420E3D6E13EC0CF0415021
:1017C00012003E503F10D8B4E8EF0BF0EAEF0BF0F8
:1017D0000EEF0CF0010E406EF2EF0BF0D8903E369B
:1017E0003F36402A3FAEF7EF0BF0F9EF0BF0EEEF8C
:1017F0000BF03E503C5C3F503D58D8A002EF0CF03F
:1018000004EF0CF008EF0CF03E503C5E3F503D5AA8
:10181000D8903F323E32402EF9EF0BF03CC03CF006
:101820003DC03DF012003D50D8B419EF0CF01BEF55
:101830000CF02AEF0CF03D50D96EDA6ADF30E83256
:10184000E832070B070AD8A428EF0CF02AEF0CF0B7
:101850002CEF0CF03DEF0CF03DC035F007EC09F03B
:101860003E6E3DC035F03D50D96EDA6A000EDFBEE7
:10187000010E366E90EC09F03E6E12001F0E3F6EA8
:1018800063EC0CF0340E3D6E13EC0CF0330E3D6E39
:1018900013EC0CF0320E3D6E13EC0CF0310E3D6E7D
:1018A00013EC0CF02A0E3C6EBCEC0CF0270E3C6ED8
:1018B000BCEC0CF0240E3C6EBCEC0CF0300E3F6E19
:1018C000A9EC0BF012003F50D8A469EF0CF06BEFBD
:1018D0000CF06FEF0CF0000E406E85EF0CF03FC087
:1018E0003DF013EC0CF0406E3F283D6E13EC0CF015
:1018F000406E3F50020F3D6E13EC0CF0406E3F50B7
:10190000030F3D6E13EC0CF0406E40501200440E7D
:10191000F66E190EF76E000EF86E00EE01F010EE86
:1019200034F00900F5CFEEFFE550E150FAE100EEAA
:1019300045F00A0EEE6AE806FDE1000EF86E0001C1
:1019400001EF08F0800F810F820F830F840F890F42
:101950008A0F8B0F8C0F8D0F920F930F940F950F93
:10196000960F020A121A007A01006A010062010051
:1019700001010143030B131B3C50D8A4C2EF0CF030
:10198000C4EF0CF0C8EF0CF0000E3D6ECEEF0CF083
:101990003CC035F007EC09F0010E3D6E3D501200E1
:020000040030CA
:0E000000FF02091EFF8181FF0FC00FE00F40BD
:00000001FF
